:100000000C946E000C94E6010C948B000C948B0005
:100010000C948B000C948B000C948B000C948B0034
:100020000C948B000C948B000C948B000C948B0024
:100030000C948B000C948B000C948B000C948B0014
:100040000C948B000C948B000C948B000C948B0004
:100050000C948B00090222000101008019090400A0
:100060000001030000000921010100012234000702
:100070000581030800641201100100000008C01689
:10008000E8030001010200011A034F00530043007E
:1000900049004C004C004F00530043004F005000FB
:1000A000450020035000520041004E00500048001F
:1000B00059002D0043004F005200520055005000DF
:1000C0005400040309040600FF0901A101150026DC
:1000D000FF00750895800900B20201C011241FBEFF
:1000E000CFE5D8E0DEBFCDBF10E0A0E6B0E0EAEC9F
:1000F000F6E002C005900D92A436B107D9F720E0D2
:10010000A4E6B0E001C01D92AB39B207E1F70E944E
:1001100047030C9463030C940000CF93C62F2091E7
:10012000700024FF07C02091710038E82327209336
:10013000710003C02AE520937000DC01E2E7F0E0E3
:100140009C2F9E0F8D918193892F8E1B1816D4F3AF
:100150006C2F82E790E00E94E201CC5FC0937000B8
:10016000CF910895CF93DF9380918100835087FDD5
:10017000A9C090917E0020917D002D3209F0A0C091
:10018000883009F09DC0CCE0D0E0C91BD109CB5725
:10019000DF4F83EC809365008AE5809361001092C5
:1001A00064008881807621F0CE010E941E037FC00A
:1001B0009A8110926E008981811106C010926F00A1
:1001C0002EE630E082E06FC0853019F49093820013
:1001D00067C0863009F04EC08B81813041F486E7DC
:1001E00090E09093800080937F0082E13FC0823056
:1001F00041F484E590E09093800080937F0082E258
:1002000035C08330F1F4911108C082EC90E09093F6
:10021000800080937F0084E029C0913041F482EA1D
:1002200090E09093800080937F0080E21FC0923026
:10023000E1F488E890E09093800080937F008AE169
:1002400015C0813241F486E690E09093800080935F
:100250007F0089E00BC0823241F486EC90E09093FD
:10026000800080937F0084E301C080E090E490935D
:1002700064001DC0883069F0893019F490938400BF
:100280000FC08A3049F08B3059F48BE480937100B1
:1002900007C024E830E002C02EE630E081E003C071
:1002A0002EE630E080E03093800020937F009F8135
:1002B000911104C09E81981708F4892F80936000E3
:1002C000109281008091610084FF4DC08091600098
:1002D0008F3F09F448C0C82F893008F0C8E08C1B54
:1002E000809360008091650098E88927809365007D
:1002F000CC2361F180917F00909180002091640077
:1003000026FF12C0A6E6B0E025E630E02095309545
:10031000280F391F4C2F4A0FF901EA0FFB1FE491F8
:10032000ED934A13F9CF09C0E6E6F0E0DC012C2F8B
:100330002E0F3D9131932E13FCCF01962FEF2C0FF2
:10034000820F911D9093800080937F006C2F86E632
:1003500090E00E94E201CC5FCC3019F08FEF8093E7
:100360006000C093610084E190B3947131F48150D6
:10037000D9F71092820010927C00DF91CF910895FE
:1003800085B7826085BF8BB780648BBF8BE4809319
:1003900071008AE5809370000895A82FB92F80E03E
:1003A00090E041E050EA609530E009C02D9182274D
:1003B0009795879510F084279527305EC8F36F5F77
:1003C000A8F30895EADF8D939D930895CF93CFB757
:1003D000CF93DF93C395849BE9F7849B0BC0849BE9
:1003E00009C0849B07C0849B05C0849B03C0849B79
:1003F00001C08BC06F93C0917E00DD27CB57DF4FCC
:100400002F9365E5849B03C02F916F91E6CF0F93E7
:100410001F934F9320E040E15F9300B3047104FB0E
:1004200027F93F9350E03BE039C0147140642F77C7
:10043000012F5F5F1EC0406810B314712F775250B8
:100440001FC0406400B32F770471D1F15F5F00C01B
:1004500023C0406210B32F77147191F15F5F00C029
:1004600025C004711027515012F45D5F0000115037
:1004700027952C3F10B3C8F614710127015027951A
:100480002C3FC8F64227499300B3047110274F73DD
:10049000115027952C3FA8F64695469510B3147138
:1004A00079F00127015027952C3F98F66B5A60F39D
:1004B000315000B3B0F600C010E41ABF002719C0D5
:1004C0003B503195C31BD04010E41ABF0881033C58
:1004D00009F10B34F9F020917C001981110F1213EE
:1004E000EDCF4A81441F093651F10D3211F0013E22
:1004F00029F7009383003F915F914F911F910F91D6
:100500002F916F91CAB7C6FD65CFDF91CF91CFBF55
:10051000CF91189520918300222369F310918100D7
:10052000112391F5343092F13093810020937D00B6
:1005300010917E003BE0311B30937E0027C000917C
:10054000810001300CF50AE54F7049F430916100EB
:1005500034FD1DC000936100C5E6D0E01CC03091A1
:10056000700034FD14C000937000C1E7D0E013C0E8
:10057000052710E000C0000002BB1AC0052710E0EC
:10058000221F1DC010E021C04AE502C032ED432FFA
:10059000C4E1D0E032E011B31461949A02B311BB0C
:1005A00054E120E865E320FF052702BB2795179556
:1005B0001C3FF0F66695B8F7B1F720FF052702BBA0
:1005C000279517951C3FD0F62795179517FF0527F8
:1005D00000001C3F02BBB0F629913A9519F70B7E3B
:1005E00010918200110FC651D04002BB11F0109340
:1005F0007C0010E41ABF006111B31B7E402F4B7EBC
:1006000054E05A95F1F702BB11BB42BB74CF17B847
:100610003E9A3D9A329A379A369A3699FECF85B1EC
:1006200090E0089581E087B93E9A3D9A329A379AD0
:10063000369A3699FECF85B190E00895CF93FC01AC
:10064000C181C13089F090F0C23091F0C330D9F44B
:100650000E9412038093620082E690E090938000F3
:1006600080937F00C2E010C0C19A0DC0C1980CC039
:100670000E9407038093620082E690E090938000DE
:1006800080937F0001C0C0E08C2FCF910895B99A6C
:100690009EE088E10FB6F894A89581BD0FBE91BD8C
:1006A0000E94C0018C9A8AEFA895E3EFF1E03197A0
:1006B000F1F700C000008150B9F78C987894A895A4
:0A06C0000E94B200FCCFF894FFCFB7
:0406CA00FF5A410092
:00000001FF
